:100000000C9434000C9451000C9451000C94510049
:100010000C9451000C9451000C9451000C9451001C
:100020000C9451000C9451000C9451000C9451000C
:100030000C9451000C9451000C9451000C945100FC
:100040000C9451000C9451000C9451000C945100EC
:100050000C9451000C9451000C9451000C945100DC
:100060000C9451000C94510011241FBECFEFD8E026
:10007000DEBFCDBF11E0A0E0B1E0EEEFF9E102C0DC
:1000800005900D92AA30B107D9F721E0AAE0B1E0BE
:1000900001C01D92A731B207E1F70E9404030C943E
:1000A000FD0C0C940000CF93DF931F92CDB7DEB709
:1000B00089838981816080930A0189818E7F809301
:1000C0000B0100000F90DF91CF910895CF93DF9344
:1000D000CDB7DEB764E284EF0E947C0064E085EF78
:1000E0000E947C0065E284EF0E947C000E948001F7
:1000F0000000DF91CF910895CF93DF9300D01F923E
:10010000CDB7DEB78A836B8319820E94D4068091B3
:100110000B010E943407882361F08A810E94340712
:10012000882339F08B810E943407882311F081E005
:1001300089830E94040789810F900F900F90DF91AF
:10014000CF910895CF93DF9300D000D0CDB7DEB725
:1001500061E284EF0E947C0019821A821B821C8259
:1001600080910B016AEF0E94B007882F90E0982FD2
:1001700088279295907F092E000CAA0BBB0B298132
:100180003A814B815C81822B932BA42BB52B8983E5
:100190009A83AB83BC8380910B016BEF0E94B00705
:1001A000882F90E082959295907F9827807F98275E
:1001B000092E000CAA0BBB0B29813A814B815C8173
:1001C000822B932BA42BB52B89839A83AB83BC837F
:1001D00080910B016CEF0E94B00782958F70882F81
:1001E00090E0092E000CAA0BBB0B29813A814B81B0
:1001F0005C81822B932BA42BB52B89839A83AB83B1
:10020000BC8389819A81AB81BC81BC01CD010E94F4
:100210000102DC01CB01BC01CD010F900F900F90CA
:100220000F90DF91CF910895CF93DF9300D000D04E
:10023000CDB7DEB761E284EF0E947C0019821A829A
:100240001B821C8280910B016AEF0E94B007882FED
:1002500090E0982F88279295907F092E000CAA0B8A
:10026000BB0B29813A814B815C81822B932BA42B80
:10027000B52B89839A83AB83BC8380910B016BEF91
:100280000E94B007882F90E082959295907F9827E2
:10029000807F9827092E000CAA0BBB0B29813A817D
:1002A0004B815C81822B932BA42BB52B89839A8362
:1002B000AB83BC8380910B016CEF0E94B0078295E9
:1002C0008F70882F90E0092E000CAA0BBB0B2981A0
:1002D0003A814B815C81822B932BA42BB52B898394
:1002E0009A83AB83BC8389819A81AB81BC81BC0139
:1002F000CD010F900F900F900F90DF91CF91089547
:10030000CF93DF93CDB7DEB710920E0110920D019F
:100310001092100110920F0110921201109211010F
:1003200080910A0168E80E94B007282F30E0809190
:100330000D0190910E01822B932B90930E018093CF
:100340000D0180910A0169E80E94B007882F90E0B2
:10035000982F88279C0180910D0190910E01822B8E
:10036000932B90930E0180930D0180910A016AE80E
:100370000E94B007282F30E080910F01909110016A
:10038000822B932B9093100180930F0180910A018F
:100390006BE80E94B007882F90E0382F22278091C9
:1003A0000F0190911001822B932B90931001809359
:1003B0000F0180910A016CE80E94B007282F30E0FD
:1003C0008091110190911201822B932B9093120135
:1003D0008093110180910A016DE80E94B007882F77
:1003E00090E0382F22278091110190911201822BE9
:1003F000932B90931201809311010000DF91CF9114
:100400000895AF92BF92CF92DF92EF92FF920F9337
:100410001F93CF93DF93CDB7DEB760970FB6F894F5
:10042000DEBF0FBECDBF6D877E878F87988B8D8592
:100430009E85AF85B8899C01AD01689412F85595E9
:100440004795379527951694D1F780910D01909196
:100450000E01CC01A0E0B0E0880F991FAA1FBB1FBE
:10046000281B390B4A0B5B0B80910F0190911001F7
:10047000092E000CAA0BBB0BBC01CD010E94E9099F
:10048000DC01CB01072E7BE0B595A7959795879565
:100490007A95D1F7702D89839A83AB83BC838D8540
:1004A0009E85AF85B8899C01AD01689413F8559578
:1004B0004795379527951694D1F780910D01909126
:1004C0000E01CC01A0E0B0E079018A01E81AF90A36
:1004D0000A0B1B0B8D859E85AF85B8899C01AD01EC
:1004E000689413F855954795379527951694D1F745
:1004F00080910D0190910E01CC01A0E0B0E0590176
:100500006A01A81AB90ACA0ADB0AD601C501A801FC
:100510009701BC01CD010E94E909DC01CB019C01DE
:10052000AD01012E1CE055954795379527951A95F5
:10053000D1F7102D8091110190911201092E000C1C
:10054000AA0BBB0BBC01CD010E94E909DC01CB0168
:10055000072E7EE0B595A795979587957A95D1F763
:10056000702D8D839E83AF83B88729813A814B811B
:100570005C818D819E81AF81B885820F931FA41FFE
:10058000B51F8093130190931401A0931501B093AC
:1005900016012091130130911401409115015091E1
:1005A0001601DA01C901880F991FAA1FBB1F880F06
:1005B000991FAA1FBB1F820F931FA41FB51F80582E
:1005C0009F4FAF4FBF4F892F9A2FAB2FBB27A7FD50
:1005D000BA9589879A87AB87BC8789859A85AB85C9
:1005E000BC85BC01CD0160960FB6F894DEBF0FBE8E
:1005F000CDBFDF91CF911F910F91FF90EF90DF90D2
:10060000CF90BF90AF900895CF93DF93CDB7DEB773
:10061000E0970FB6F894DEBF0FBECDBF8EEE898394
:100620008EE48A8345E760E070E080E291E40E9416
:1006300013058A810E94580889810E9453000E94F4
:10064000660020E1CE014196FC01322F11923A95CD
:10065000E9F70E94A200DC01CB012B2F2F932A2F58
:100660002F93292F2F938F9385E091E0892F8F93DC
:1006700085E091E08F93CE014196292F2F938F93A0
:100680000E94130A8DB79EB708960FB6F894DEBF86
:100690000FBECDBF20E1CE018196FC01322F119219
:1006A0003A95E9F70E941401DC01CB012B2F2F931F
:1006B0002A2F2F93292F2F938F9385E091E0892F55
:1006C0008F9385E091E08F93CE018196292F2F9310
:1006D0008F930E94130A8DB79EB708960FB6F894B1
:1006E000DEBF0FBECDBF0E946D0960E080E00E94BA
:1006F0004E09CE0141960E94570960E081E00E94B8
:100700004E09CE0181960E94570980E090E0AAE749
:10071000B4E48B839C83AD83BE8320E030E04AE762
:1007200055E46B817C818D819E810E947E04DC0179
:10073000CB018F839887A987BA8720E030E040E813
:100740005FE36F81788589859A850E94F803882305
:100750002CF481E090E09C878B873FC020E03FEF46
:100760004FE757E46F81788589859A850E947904DF
:1007700018164CF520E030E040E251E46B817C81BA
:100780008D819E810E947E04DC01CB01BC01CD01E4
:100790000E94FD03DC01CB019C878B870FC080E9A1
:1007A00091E09E878D878D859E850197F1F79E87C5
:1007B0008D878B859C8501979C878B878B859C85F6
:1007C000892B69F714C06F81788589859A850E9485
:1007D000FD03DC01CB019C878B878B859C85988BE7
:1007E0008F878F8598890197F1F7988B8F8729CF0D
:1007F0000E942C0408F481E008950E94580488F0B7
:100800009F5798F0B92F9927B751B0F0E1F0660FD4
:10081000771F881F991F1AF0BA95C9F714C0B13015
:1008200091F00E947204B1E008950C947204672F55
:10083000782F8827B85F39F0B93FCCF38695779544
:100840006795B395D9F73EF490958095709561952D
:100850007F4F8F4F9F4F0895990F0008550FAA0B98
:10086000E0E8FEEF16161706E807F907C0F01216C3
:100870001306E407F50798F0621B730B840B950BC6
:1008800039F40A2661F0232B242B252B21F408951B
:100890000A2609F4A140A6958FEF811D811D0895B8
:1008A00057FD9058440F551F59F05F3F71F0479521
:1008B000880F97FB991F61F09F3F79F08795089506
:1008C000121613061406551FF2CF4695F1DF08C025
:1008D000161617061806991FF1CF86957105610542
:1008E00008940895E894BB2766277727CB0197F9EA
:1008F00008950E942C0408F48FEF08950E9491043B
:100900000C9402050E94F40438F00E94FB0420F0CD
:10091000952311F00C94EB040C94F10411240C9425
:1009200073040E94500470F3959FC1F3950F50E03B
:10093000551F629FF001729FBB27F00DB11D639F91
:10094000AA27F00DB11DAA1F649F6627B00DA11D37
:10095000661F829F2227B00DA11D621F739FB00DDD
:10096000A11D621F839FA00D611D221F749F33274D
:10097000A00D611D231F849F600D211D822F762FE6
:100980006A2F11249F5750409AF0F1F088234AF0C3
:10099000EE0FFF1FBB1F661F771F881F915050402F
:1009A000A9F79E3F510580F00C94EB040C9473045E
:1009B0005F3FE4F3983ED4F3869577956795B795B6
:1009C000F795E7959F5FC1F7FE2B880F911D9695D0
:1009D000879597F9089597F99F6780E870E060E040
:1009E00008959FEF80EC089500240A9416161706C8
:1009F00018060906089500240A9412161306140610
:100A000005060895092E0394000C11F4882352F072
:100A1000BB0F40F4BF2B11F460FF04C06F5F7F4F2A
:100A20008F4F9F4F0895CF93DF9300D000D01F9238
:100A3000CDB7DEB769837A838B839C834D838981AD
:100A40009A81AB81BC818093000190930101A093B6
:100A50000201B09303018D81809304018AE290E04A
:100A60002AE230E0F9012081277FFC0120838AE21D
:100A700090E02AE230E0F90120812B7FFC01208305
:100A800000000F900F900F900F900F90DF91CF917B
:100A90000895CF93DF93CDB7DEB7AE970FB6F89436
:100AA000DEBF0FBECDBF80910401882F90E08D3650
:100AB000910509F4F8C08537910509F06BC1809163
:100AC000000190910101A0910201B09103018D8379
:100AD0009E83AF83B8872BEA3AEA4AEA50E46D81F5
:100AE0007E818F8198850E947E04DC01CB018987FD
:100AF0009A87AB87BC8720E030E040E850E46D8106
:100B00007E818F8198850E947E04DC01CB018D87D8
:100B10009E87AF87B88B20E030E040E85FE36985CF
:100B20007A858B859C850E94F80388231CF481E0DC
:100B3000898BB2C020E03FEF4FE757E46D857E859B
:100B40008F8598890E94790418160CF07BC020E0EC
:100B500030E04AE754E46D817E818F8198850E9460
:100B60007709DC01CB018A8B9B8BAC8BBD8B20E0A2
:100B700030E04AE755E46A897B898C899D890E9427
:100B80007E04DC01CB018E8B9F8BA88FB98F20E078
:100B900030E040E85FE36E897F89888D998D0E94FF
:100BA000F80388232CF481E090E09B8F8A8F3FC06C
:100BB00020E03FEF4FE757E46E897F89888D998D5C
:100BC0000E94790418164CF520E030E040E251E430
:100BD0006A897B898C899D890E947E04DC01CB0116
:100BE000BC01CD010E94FD03DC01CB019B8F8A8FEC
:100BF0000FC080E991E09D8F8C8F8C8D9D8D01972A
:100C0000F1F79D8F8C8F8A8D9B8D01979B8F8A8F9B
:100C10008A8D9B8D892B69F73FC06E897F89888D6E
:100C2000998D0E94FD03DC01CB019B8F8A8F8A8DF9
:100C30009B8D9F8F8E8F8E8D9F8D0197F1F79F8F4C
:100C40008E8F2AC020E030E04FE753E469857A8533
:100C50008B859C850E9479041816ACF46D857E8581
:100C60008F8598890E94FD03DC01CB0199A388A39D
:100C700088A199A19BA38AA38AA19BA10197F1F7BF
:100C80009BA38AA387C069857A858B859C850E94F2
:100C9000FD03DC01CB01898B89898CA38CA18A950A
:100CA000F1F78CA377C08091000190910101A09190
:100CB0000201B091030189839A83AB83BC8320E056
:100CC00030E04AE755E469817A818B819C810E94FA
:100CD0007E04DC01CB018DA39EA3AFA3B8A720E0C7
:100CE00030E040E85FE36DA17EA18FA198A50E944E
:100CF000F80388232CF481E090E09AA789A73FC0ED
:100D000020E03FEF4FE757E46DA17EA18FA198A5AA
:100D10000E94790418164CF520E030E040E251E4DE
:100D200069817A818B819C810E947E04DC01CB01E8
:100D3000BC01CD010E94FD03DC01CB019AA789A76C
:100D40000FC080E991E09CA78BA78BA59CA501977C
:100D5000F1F79CA78BA789A59AA501979AA789A7C0
:100D600089A59AA5892B69F714C06DA17EA18FA1D1
:100D700098A50E94FD03DC01CB019AA789A789A54C
:100D80009AA59EA78DA78DA59EA50197F1F79EA771
:100D90008DA700000000AE960FB6F894DEBF0FBE20
:100DA000CDBFDF91CF910895CF93DF93CDB7DEB75D
:100DB0008AE290E02AE230E0F9012081277FFC01FD
:100DC00020838AE290E02AE230E0F90120812B7F43
:100DD000FC0120830E9449058AE290E02AE230E08B
:100DE000F90120812460FC0120830E9449058AE2E8
:100DF00090E02AE230E0F90120812860FC012083A4
:100E00000000DF91CF910895CF93DF93CDB7DEB788
:100E10008AE290E02AE230E0F90120812860FC01BA
:100E200020838AE290E02AE230E0F9012081246008
:100E3000FC0120830E9449058AE290E02AE230E02A
:100E4000F9012081277FFC0120830E9449058AE265
:100E500090E02AE230E0F90120812B7FFC01208321
:100E60000000DF91CF910895CF93DF9300D000D0A1
:100E7000CDB7DEB78C838AE290E02AE230E0F90158
:100E800020812860FC0120831A8219822FC00E94D1
:100E900049058C81881F8827881F0E9434088C810F
:100EA000880F8C830E9449058AE290E02AE230E0B4
:100EB000F9012081277FFC0120830E9449058AE2F5
:100EC00090E02AE230E0F90120812860FC012083D3
:100ED0008AE290E02AE230E0F90120812460FC01FE
:100EE000208389819A8101969A83898389819A8155
:100EF00008976CF28AE290E02AE230E0F901208162
:100F00002B7FFC0120830E9449058AE290E02AE2BF
:100F100030E0F9012081277FFC0120830E944905F0
:100F20001B8289E290E0FC018081882F90E0847030
:100F30009927892B11F481E08B838AE290E02AE2E1
:100F400030E0F90120812860FC0120830E944905DE
:100F50008B810F900F900F900F90DF91CF9108959C
:100F6000CF93DF93CDB7DEB727970FB6F894DEBFE8
:100F70000FBECDBF8E836F8319828E818E7F8C834F
:100F80008E8181608D838AE290E02AE230E0F9016F
:100F900020812860FC0120830E94D4068C810E945D
:100FA00034078F810E9434070E94D4068D810E94ED
:100FB0003407882309F44EC08AE290E02AE230E048
:100FC000F90120812860FC0120838AE290E02AE276
:100FD00030E0F90120812B7FFC01208387E090E045
:100FE0009B838A8333C00E9449058AE290E02AE20B
:100FF00030E0F9012081277FFC0120830E94490510
:1010000089E290E0FC018081882F90E0847099272C
:1010100021E0892B09F420E0822F90E00A8002C0B1
:10102000880F991F0A94E2F7982F8981892B898369
:101030008AE290E02AE230E0F90120812860FC0198
:1010400020838A819B8101979B838A838A819B81EC
:1010500099234CF6898127960FB6F894DEBF0FBE10
:10106000CDBFDF91CF910895CF93DF931F92CDB77E
:10107000DEB789838981882351F48AE290E02AE2ED
:1010800030E0F90120812460FC0120830CC08981BB
:10109000813049F48AE290E02AE230E0F9012081CF
:1010A0002B7FFC01208300000F90DF91CF910895EA
:1010B000CF93C82F45E760E070E080E291E40E94A2
:1010C00013052FEF89E698E1215080409040E1F729
:1010D00000C000000E94D4068C2F0E943407882391
:1010E00009F488C0C0930C018FE59AEE0197F1F7DF
:1010F00000C0000084E30E94340780E30E943407AC
:101100009FE720E082E0915020408040E1F700C05E
:10111000000084E30E94340780E30E9434078FE8D4
:1011200091E00197F1F700C0000084E30E943407CA
:1011300080E30E9434079FE720E082E09150204046
:101140008040E1F700C0000084E20E94340780E2A2
:101150000E94340795ED9A95F1F7000084E20E9411
:10116000340780E20E94340784E80E94340780E854
:101170000E94340725ED2A95F1F7000084E00E94D3
:10118000340780E00E94340784E80E94340780E836
:101190000E94340785ED8A95F1F7000084E00E94F3
:1011A000340780E00E94340784E10E94340780E124
:1011B0000E94340795ED9A95F1F7000084E00E94B3
:1011C000340780E00E94340784E60E94340780E6FA
:1011D0000E94340725ED2A95F1F700008CE00E946B
:1011E000340788E00E9434078CEE0E94340788EEB2
:1011F0000E9434070E940407CF910895CF93DF9394
:10120000C82F0E94D40680910C010E94340785EDFE
:101210008A95F1F70000DC2FD07F8D2F8C600E9423
:1012200034078D2F88600E94340780E1C89FE00159
:1012300011248C2F8C600E9434078C2F88600E94B0
:1012400034070E940407DF91CF910895CF93DF9375
:10125000C82F0E94D40680910C010E94340785EDAE
:101260008A95F1F70000DC2FD07F8D2F8D600E94D2
:1012700034078D2F89600E94340780E1C89FE00108
:1012800011248C2F8D600E9434078C2F89600E945E
:1012900034070E940407DF91CF910895605890E4CD
:1012A000899F600D1124862F0E94FE0808950F93D8
:1012B0001F93CF93FC018081882359F08F01C0E0F8
:1012C0000E942609CF5FF801EC0FF11D808181118A
:1012D000F7CFCF911F910F91089581E00E94FE08F2
:1012E0008FE39FE10197F1F700C0000008950E948D
:1012F0008B090C9402050E94FB0458F00E94F40430
:1013000040F029F45F3F29F00C94EB0451110C9448
:1013100073040C94F1040E94500468F39923B1F310
:10132000552391F3951B550BBB27AA27621773070B
:10133000840738F09F5F5F4F220F331F441FAA1F9F
:10134000A9F335D00E2E3AF0E0E832D0915050405B
:10135000E695001CCAF72BD0FE2F29D0660F771F09
:10136000881FBB1F261737074807AB07B0E809F0EF
:10137000BB0B802DBF01FF2793585F4F3AF09E3F74
:10138000510578F00C94EB040C9473045F3FE4F384
:10139000983ED4F3869577956795B795F7959F5FB7
:1013A000C9F7880F911D9695879597F90895E1E003
:1013B000660F771F881FBB1F621773078407BA0762
:1013C00020F0621B730B840BBA0BEE1F88F7E095BD
:1013D0000895DB018F939F930E94F909BF91AF910C
:1013E000A29F800D911DA39F900DB29F900D11247F
:1013F00008950E94040AA59F900DB49F900DA49F8C
:10140000800D911D11240895A29FB001B39FC001CA
:10141000A39F700D811D1124911DB29F700D811D20
:101420001124911D0895AEE0B0E0E9E1FAE00C94DA
:10143000D40C0D891E8986E08C831A8309838FEF73
:101440009FE79E838D83AE01475E5F4F6F89788DE6
:10145000CE0101960E94350AEF81F885E00FF11F59
:1014600010822E96E4E00C94F00CABE0B0E0EBE3DD
:10147000FAE00C94C60C6C017B018A01FC01178216
:101480001682838181FFCCC1CE0101963C01F60119
:101490009381F70193FD859193FF81917F018823CB
:1014A00009F4BAC1853239F493FD859193FF819196
:1014B0007F01853229F4B60190E00E942C0CE7CF21
:1014C000912C212C312CFFE1F315D8F08B3279F0DF
:1014D00038F4803279F08332A1F4232D20611DC0CD
:1014E0008D3261F0803369F4232D216016C0832D85
:1014F0008260382EE32DE4603E2E2AC0F32DF86082
:101500001DC037FC2DC020ED280F2A3040F08E3250
:10151000B9F436FC81C1232D2064322E19C036FE69
:1015200006C08AE0989E200D1124922E11C0EAE098
:101530002E9E200D1124222EF32DF0623F2E08C086
:101540008C3621F4832D8068382E02C0883641F411
:10155000F70193FD859193FF81917F018111B3CFB5
:10156000982F9F7D9554933028F40C5F1F4F9FE375
:1015700099830DC0833631F0833771F0833509F0DC
:1015800059C021C0F801808189830E5F1F4F8824D4
:101590008394912C530113C02801F2E04F0E511C8B
:1015A000F801A080B18036FE03C0692D70E002C052
:1015B0006FEF7FEFC5010E94210C4C018201F32DDA
:1015C000FF773F2E16C0280122E0420E511CF80181
:1015D000A080B18036FE03C0692D70E002C06FEFBD
:1015E0007FEFC5010E94160C4C01F32DF0683F2ED1
:1015F000820133FC1BC0822D90E088169906B0F45E
:10160000B60180E290E00E942C0C2A94F4CFF50100
:1016100037FC859137FE81915F01B60190E00E9411
:101620002C0C21102A9421E0821A91088114910433
:1016300071F7E8C0843611F0893641F5F80137FEBC
:1016400007C060817181828193810C5F1F4F08C048
:1016500060817181072E000C880B990B0E5F1F4F64
:10166000F32DFF763F2E97FF09C0909580957095DA
:1016700061957F4F8F4F9F4FF0683F2E2AE030E0FB
:10168000A3010E94680C882E861845C0853731F466
:10169000232D2F7EB22E2AE030E025C0932D997F96
:1016A000B92E8F36C1F018F4883579F0B5C080377F
:1016B00019F0883721F0B0C0E92FE061BE2EB4FEEA
:1016C0000DC0FB2DF460BF2E09C034FE0AC0292FC7
:1016D0002660B22E06C028E030E005C020E130E0F0
:1016E00002C020E132E0F801B7FE07C060817181DD
:1016F000828193810C5F1F4F06C06081718180E001
:1017000090E00E5F1F4FA3010E94680C882E861880
:10171000FB2DFF773F2E36FE0DC0232D2E7FA22EF0
:10172000891458F434FE0BC032FC09C0832D8E7E20
:10173000A82E05C0B82CA32C03C0B82C01C0B92C0E
:10174000A4FE0FC0FE01E80DF11D8081803321F45D
:101750009A2D997EA92E09C0A2FE06C0B394B39417
:1017600004C08A2D867809F0B394A3FC11C0A0FEB2
:1017700006C0B21488F4280C922C9B180EC0B21428
:1017800060F4B60180E290E00E942C0CB394F7CF95
:10179000B21418F42B1802C0982C212CA4FE10C0EF
:1017A000B60180E390E00E942C0CA2FE17C0A1FCC1
:1017B00003C088E790E002C088E590E0B6010CC065
:1017C0008A2D867859F0A1FE02C08BE201C080E22A
:1017D000A7FC8DE2B60190E00E942C0C891438F42D
:1017E000B60180E390E00E942C0C9A94F7CF8A9483
:1017F000F301E80DF11D8081B60190E00E942C0CF0
:101800008110F5CF222009F442CEB60180E290E0AB
:101810000E942C0C2A94F6CFF6018681978102C093
:101820008FEF9FEF2B96E2E10C94E20CFC01059008
:10183000615070400110D8F7809590958E0F9F1FD2
:101840000895FC016150704001900110D8F7809517
:1018500090958E0F9F1F08950F931F93CF93DF9343
:10186000FB01238121FD03C08FEF9FEF2CC022FFDE
:1018700016C046815781248135814217530744F4AD
:10188000A081B1819D012F5F3F4F318320838C93D5
:10189000268137812F5F3F4F3783268314C08B010A
:1018A000EC01FB010084F185E02D0995892BE1F61F
:1018B000D80116968D919C911797019617969C9337
:1018C0008E931697CE01DF91CF911F910F910895BE
:1018D000FA01AA27283051F1203181F1E8946F9361
:1018E0006E7F6E5F7F4F8F4F9F4FAF4FB1E03ED007
:1018F000B4E03CD0670F781F891F9A1FA11D680FA5
:10190000791F8A1F911DA11D6A0F711D811D911DD7
:10191000A11D20D009F468943F912AE0269F11244C
:101920003019305D3193DEF6CF010895462F4770B0
:10193000405D4193B3E00FD0C9F7F6CF462F4F700B
:10194000405D4A3318F0495D31FD4052419302D069
:10195000A9F7EACFB4E0A69597958795779567950F
:10196000BA95C9F700976105710508959B01AC010F
:101970000A2E06945795479537952795BA95C9F736
:10198000620F731F841F951FA01D08952F923F9211
:101990004F925F926F927F928F929F92AF92BF927F
:1019A000CF92DF92EF92FF920F931F93CF93DF932B
:1019B000CDB7DEB7CA1BDB0B0FB6F894DEBF0FBE88
:1019C000CDBF09942A88398848885F846E847D84D5
:1019D0008C849B84AA84B984C884DF80EE80FD80D7
:1019E0000C811B81AA81B981CE0FD11D0FB6F8944D
:0E19F000DEBF0FBECDBFED010895F894FFCF0E
:0A19FE000000A04075256C64000095
:00000001FF
