S01200004932435F424D453238302E7372656387
S11300000C9434000C9451000C9451000C94510045
S11300100C9451000C9451000C9451000C94510018
S11300200C9451000C9451000C9451000C94510008
S11300300C9451000C9451000C9451000C945100F8
S11300400C9451000C9451000C9451000C945100E8
S11300500C9451000C9451000C9451000C945100D8
S11300600C9451000C94510011241FBECFEFD8E022
S1130070DEBFCDBF11E0A0E0B1E0E4E2F9E102C0EF
S113008005900D92AC30B107D9F721E0ACE0B1E0B6
S113009001C01D92A931B207E1F70E94A3020C949A
S11300A0900C0C940000CF93DF931F92CDB7DEB772
S11300B089838981816080930C0189818E7F8093FB
S11300C00D0100000F90DF91CF910895CF93DF933E
S11300D0CDB7DEB764E284EF0E947C0064E085EF74
S11300E00E947C0065E284EF0E947C000E941F0154
S11300F00000DF91CF910895CF93DF9300D01F923A
S1130100CDB7DEB78A836B8319820E9486078091FC
S11301100D010E94E607882361F08A810E94E607A8
S1130120882339F08B810E94E607882311F081E04F
S113013089830E94B60789810F900F900F90DF91F9
S1130140CF910895CF93DF9300D000D0CDB7DEB721
S113015061E284EF0E947C0019821A821B821C8255
S113016080910D016AEF0E946208882F90E0A0E060
S1130170B0E0072E7CE0880F991FAA1FBB1F7A9559
S1130180D1F7702D29813A814B815C81822B932B8D
S1130190A42BB52B89839A83AB83BC8380910D01F7
S11301A06BEF0E946208882F90E0A0E0B0E0880F17
S11301B0991FAA1FBB1F880F991FAA1FBB1F880F57
S11301C0991FAA1FBB1F880F991FAA1FBB1F9C0141
S11301D0AD0189819A81AB81BC81822B932BA42BA5
S11301E0B52B89839A83AB83BC8380910D016CEF1B
S11301F00E94620882958F70882F90E0A0E0B0E0A2
S113020029813A814B815C81822B932BA42BB52BC2
S113021089839A83AB83BC8389819A81AB81BC81B6
S1130220BC01CD010E94A001DC01CB01BC01CD01C8
S11302300F900F900F900F90DF91CF910895CF936F
S1130240DF93CDB7DEB71092100110920F01109218
S11302501201109211011092140110921301809155
S11302600C0168E80E946208282F30E080910F0199
S113027090911001822B932B9093100180930F0186
S113028080910C0169E80E946208882F90E0982F01
S113029088279C0180910F0190911001822B932B50
S11302A09093100180930F0180910C016AE80E94E1
S11302B06208282F30E08091110190911201822B65
S11302C0932B909312018093110180910C016BE8A0
S11302D00E946208882F90E0382F22278091110114
S11302E090911201822B932B909312018093110110
S11302F080910C016CE80E946208282F30E0809104
S1130300130190911401822B932B909314018093E9
S1130310130180910C016DE80E946208882F90E01F
S1130320382F22278091130190911401822B932B53
S113033090931401809313010000DF91CF910895ED
S1130340AF92BF92CF92DF92EF92FF920F931F93DF
S1130350CF93DF93CDB7DEB760970FB6F894DEBFC7
S11303600FBECDBF6D877E878F87988B8D859E85C9
S1130370AF85B8899C01AD01689412F855954795ED
S1130380379527951694D1F780910F01909110011C
S1130390CC01A0E0B0E0880F991FAA1FBB1F281B47
S11303A0390B4A0B5B0B8091110190911201092EBC
S11303B0000CAA0BBB0BBC01CD010E947C09DC0123
S11303C0CB01072E7BE0B595A795979587957A95F0
S11303D0D1F7702D89839A83AB83BC838D859E85E9
S11303E0AF85B8899C01AD01689413F8559547957C
S11303F0379527951694D1F780910F0190911001AC
S1130400CC01A0E0B0E079018A01E81AF90A0A0BEC
S11304101B0B8D859E85AF85B8899C01AD016894C1
S113042013F855954795379527951694D1F78091EC
S11304300F0190911001CC01A0E0B0E059016A01D4
S1130440A81AB90ACA0ADB0AD601C501A80197018C
S1130450BC01CD010E947C09DC01CB019C01AD01F2
S1130460012E1CE055954795379527951A95D1F798
S1130470102D8091130190911401092E000CAA0BE8
S1130480BB0BBC01CD010E947C09DC01CB01072E12
S11304907EE0B595A795979587957A95D1F7702DB8
S11304A08D839E83AF83B88729813A814B815C8198
S11304B08D819E81AF81B885820F931FA41FB51FC4
S11304C08093150190931601A0931701B09318011E
S11304D02091150130911601409117015091180196
S11304E0DA01C901880F991FAA1FBB1F880F991F22
S11304F0AA1FBB1F820F931FA41FB51F80589F4FB5
S1130500AF4FBF4F892F9A2FAB2FBB27A7FDBA95AB
S113051089879A87AB87BC8789859A85AB85BC8593
S1130520BC01CD0160960FB6F894DEBF0FBECDBFFF
S1130530DF91CF911F910F91FF90EF90DF90CF90BB
S1130540BF90AF900895CF93DF93CDB7DEB7A29756
S11305500FB6F894DEBF0FBECDBF8EEE8B838EE454
S11305608C8345E760E070E080E291E40E94C50579
S11305708C810E94AD048B810E9453000E9466000E
S113058020E1CE014396FC01322F11923A95E9F70E
S11305900E94A200DC01CB012B2F2F932A2F2F9333
S11305A0292F2F938F9385E091E0892F8F9385E0F6
S11305B091E08F93CE014396292F2F938F930E941E
S11305C0A6098DB79EB708960FB6F894DEBF0FBE86
S11305D0CDBF8FE090E09A83898318C089819A8186
S11305E001979E012D5E3F4F820F931FFC014081B6
S11305F09E012D5E3F4F89819A81820F931FFC01DA
S1130600408389819A8101979A83898389819A8118
S1130610039724F78EE28D8B60E080E00E94A305AF
S1130620CE0143960E94AF058FED0E94AC0589E090
S113063091E00E94AF0561E183E00E94A30580E0A0
S113064090E0A8ECB2E48D839E83AF83B88720E06A
S113065030E04AE755E46D817E818F8198850E9460
S11306601804DC01CB0189879A87AB87BC8720E01B
S113067030E040E85FE369857A858B859C850E943C
S1130680920388232CF481E090E09E878D873FC0FD
S113069020E03FEF4FE757E469857A858B859C8599
S11306A00E94130418164CF520E030E040E251E4B7
S11306B06D817E818F8198850E941804DC01CB01B5
S11306C0BC01CD010E949703DC01CB019E878D877D
S11306D00FC080E991E0988B8F878F859889019767
S11306E0F1F7988B8F878D859E8501979E878D87DF
S11306F08D859E85892B69F714C069857A858B85DC
S11307009C850E949703DC01CB019E878D878D8594
S11307109E859A8B898B89899A890197F1F79A8B9F
S1130720898B2ECF0E94C60308F481E008950E94AD
S1130730F20388F09F5798F0B92F9927B751B0F07A
S1130740E1F0660F771F881F991F1AF0BA95C9F751
S113075014C0B13091F00E940C04B1E008950C94DF
S11307600C04672F782F8827B85F39F0B93FCCF392
S1130770869577956795B395D9F73EF490958095CE
S1130780709561957F4F8F4F9F4F0895990F000883
S1130790550FAA0BE0E8FEEF16161706E807F9074F
S11307A0C0F012161306E407F50798F0621B730BEA
S11307B0840B950B39F40A2661F0232B242B252B6B
S11307C021F408950A2609F4A140A6958FEF811D0E
S11307D0811D089557FD9058440F551F59F05F3FF0
S11307E071F04795880F97FB991F61F09F3F79F04F
S11307F087950895121613061406551FF2CF4695D1
S1130800F1DF08C0161617061806991FF1CF869552
S11308107105610508940895E894BB276627772736
S1130820CB0197F908950E94C60308F48FEF089549
S11308300E942B040C949C040E948E0438F00E94A5
S1130840950420F0952311F00C9485040C948B04EA
S113085011240C940D040E94EA0370F3959FC1F3D4
S1130860950F50E0551F629FF001729FBB27F00D5A
S1130870B11D639FAA27F00DB11DAA1F649F6627AF
S1130880B00DA11D661F829F2227B00DA11D621FFE
S1130890739FB00DA11D621F839FA00D611D221FB8
S11308A0749F3327A00D611D231F849F600D211D9C
S11308B0822F762F6A2F11249F5750409AF0F1F01F
S11308C088234AF0EE0FFF1FBB1F661F771F881F88
S11308D091505040A9F79E3F510580F00C94850437
S11308E00C940D045F3FE4F3983ED4F3869577951A
S11308F06795B795F795E7959F5FC1F7FE2B880F2E
S1130900911D9695879597F9089597F99F6780E8C3
S113091070E060E008959FEF80EC089500240A944D
S11309201616170618060906089500240A941216C6
S11309301306140605060895092E0394000C11F4F9
S1130940882352F0BB0F40F4BF2B11F460FF04C0A6
S11309506F5F7F4F8F4F9F4F0895CF93C82F45E709
S113096060E070E080E291E40E94C5052FEF89E623
S113097098E1215080409040E1F700C000000E94BF
S113098086078C2F0E94E607882309F488C0C09349
S11309900E018FE59AEE0197F1F700C0000084E3A1
S11309A00E94E60780E30E94E6079FE720E082E0DA
S11309B0915020408040E1F700C0000084E30E9491
S11309C0E60780E30E94E6078FE891E00197F1F7DC
S11309D000C0000084E30E94E60780E30E94E6076B
S11309E09FE720E082E0915020408040E1F700C082
S11309F0000084E20E94E60780E20E94E60795ED8B
S1130A009A95F1F7000084E20E94E60780E20E94D2
S1130A10E60784E80E94E60780E80E94E60725EDE1
S1130A202A95F1F7000084E00E94E60780E00E9426
S1130A30E60784E80E94E60780E80E94E60785ED61
S1130A408A95F1F7000084E00E94E60780E00E94A6
S1130A50E60784E10E94E60780E10E94E60795ED3F
S1130A609A95F1F7000084E00E94E60780E00E9476
S1130A70E60784E60E94E60780E60E94E60725ED85
S1130A802A95F1F700008CE00E94E60788E00E94B6
S1130A90E6078CEE0E94E60788EE0E94E6070E94B5
S1130AA0B607CF910895CF93DF93C82F0E9486078E
S1130AB080910E010E94E60785ED8A95F1F700000A
S1130AC0DC2FD07F8D2F8C600E94E6078D2F8860ED
S1130AD00E94E60780E1C89FE00111248C2F8C60FE
S1130AE00E94E6078C2F88600E94E6070E94B607E2
S1130AF0DF91CF910895CF93DF93C82F0E9486078B
S1130B0080910E010E94E60785ED8A95F1F70000B9
S1130B10DC2FD07F8D2F8D600E94E6078D2F89609A
S1130B200E94E60780E1C89FE00111248C2F8D60AC
S1130B300E94E6078C2F89600E94E6070E94B60790
S1130B40DF91CF910895605890E4899F600D11243E
S1130B50862F0E94530508950E947B0508950F93E4
S1130B601F93CF93FC018081882359F08F01C0E04B
S1130B700E947B05CF5FF801EC0FF11D808181118C
S1130B80F7CFCF911F910F910895CF93DF9300D0AA
S1130B9000D01F92CDB7DEB769837A838B839C83A1
S1130BA04D8389819A81AB81BC81809300019093AC
S1130BB00101A0930201B09303018D81809304018C
S1130BC08AE290E02AE230E0F9012081277FFC01EB
S1130BD020838AE290E02AE230E0F90120812B7F31
S1130BE0FC01208300000F900F900F900F900F9046
S1130BF0DF91CF910895CF93DF93CDB7DEB7AE9752
S1130C000FB6F894DEBF0FBECDBF80910401882FCC
S1130C1090E08D36910509F4F8C08537910509F007
S1130C206BC18091000190910101A0910201B091EA
S1130C3003018D839E83AF83B8872BEA3AEA4AEA9D
S1130C4050E46D817E818F8198850E941804DC01B7
S1130C50CB0189879A87AB87BC8720E030E040E8E6
S1130C6050E46D817E818F8198850E941804DC0197
S1130C70CB018D879E87AF87B88B20E030E040E8BA
S1130C805FE369857A858B859C850E94920388231E
S1130C901CF481E0898BB2C020E03FEF4FE757E4BA
S1130CA06D857E858F8598890E94130418160CF033
S1130CB07BC020E030E04AE754E46D817E818F817F
S1130CC098850E940A09DC01CB018A8B9B8BAC8B33
S1130CD0BD8B20E030E04AE755E46A897B898C8942
S1130CE09D890E941804DC01CB018E8B9F8BA88FF9
S1130CF0B98F20E030E040E85FE36E897F89888D1A
S1130D00998D0E94920388232CF481E090E09B8FBC
S1130D108A8F3FC020E03FEF4FE757E46E897F8919
S1130D20888D998D0E94130418164CF520E030E04C
S1130D3040E251E46A897B898C899D890E94180468
S1130D40DC01CB01BC01CD010E949703DC01CB0186
S1130D509B8F8A8F0FC080E991E09D8F8C8F8C8D43
S1130D609D8D0197F1F79D8F8C8F8A8D9B8D0197B7
S1130D709B8F8A8F8A8D9B8D892B69F73FC06E89E3
S1130D807F89888D998D0E949703DC01CB019B8F0D
S1130D908A8F8A8D9B8D9F8F8E8F8E8D9F8D0197CD
S1130DA0F1F79F8F8E8F2AC020E030E04FE753E4A5
S1130DB069857A858B859C850E9413041816ACF48A
S1130DC06D857E858F8598890E949703DC01CB0110
S1130DD099A388A388A199A19BA38AA38AA19BA173
S1130DE00197F1F79BA38AA387C069857A858B85D0
S1130DF09C850E949703DC01CB01898B89898CA394
S1130E008CA18A95F1F78CA377C080910001909111
S1130E100101A0910201B091030189839A83AB83FC
S1130E20BC8320E030E04AE755E469817A818B8114
S1130E309C810E941804DC01CB018DA39EA3AFA367
S1130E40B8A720E030E040E85FE36DA17EA18FA168
S1130E5098A50E94920388232CF481E090E09AA73D
S1130E6089A73FC020E03FEF4FE757E46DA17EA183
S1130E708FA198A50E94130418164CF520E030E0C9
S1130E8040E251E469817A818B819C810E9418043B
S1130E90DC01CB01BC01CD010E949703DC01CB0135
S1130EA09AA789A70FC080E991E09CA78BA78BA57F
S1130EB09CA50197F1F79CA78BA789A59AA50197F3
S1130EC09AA789A789A59AA5892B69F714C06DA14A
S1130ED07EA18FA198A50E949703DC01CB019AA75C
S1130EE089A789A59AA59EA78DA78DA59EA50197DB
S1130EF0F1F79EA78DA700000000AE960FB6F894F8
S1130F00DEBF0FBECDBFDF91CF910895CF93DF93A6
S1130F10CDB7DEB78AE290E02AE230E0F901208121
S1130F20277FFC0120838AE290E02AE230E0F90185
S1130F3020812B7FFC0120830E94FB058AE290E044
S1130F402AE230E0F90120812460FC0120830E9420
S1130F50FB058AE290E02AE230E0F9012081286072
S1130F60FC0120830000DF91CF910895CF93DF939C
S1130F70CDB7DEB78AE290E02AE230E0F9012081C1
S1130F802860FC0120838AE290E02AE230E0F90143
S1130F9020812460FC0120830E94FB058AE290E00A
S1130FA02AE230E0F9012081277FFC0120830E949E
S1130FB0FB058AE290E02AE230E0F90120812B7FF0
S1130FC0FC0120830000DF91CF910895CF93DF933C
S1130FD000D000D0CDB7DEB78C838AE290E02AE25D
S1130FE030E0F90120812860FC0120831A821982F3
S1130FF02FC00E94FB058C81881F8827881F0E94B0
S1131000E6088C81880F8C830E94FB058AE290E0BD
S11310102AE230E0F9012081277FFC0120830E942D
S1131020FB058AE290E02AE230E0F90120812860A1
S1131030FC0120838AE290E02AE230E0F901208179
S11310402460FC01208389819A8101969A83898393
S113105089819A8108976CF28AE290E02AE230E072
S1131060F90120812B7FFC0120830E94FB058AE289
S113107090E02AE230E0F9012081277FFC012083FF
S11310800E94FB051B8289E290E0FC018081882F8D
S113109090E084709927892B11F481E08B838AE294
S11310A090E02AE230E0F90120812860FC012083ED
S11310B00E94FB058B810F900F900F900F90DF9192
S11310C0CF910895CF93DF93CDB7DEB727970FB6AF
S11310D0F894DEBF0FBECDBF8E836F8319828E81DD
S11310E08E7F8C838E8181608D838AE290E02AE2F8
S11310F030E0F90120812860FC0120830E948607EA
S11311008C810E94E6078F810E94E6070E94860771
S11311108D810E94E607882309F44EC08AE290E09C
S11311202AE230E0F90120812860FC0120838AE270
S113113090E02AE230E0F90120812B7FFC0120833A
S113114087E090E09B838A8333C00E94FB058AE298
S113115090E02AE230E0F9012081277FFC0120831E
S11311600E94FB0589E290E0FC018081882F90E0D9
S11311708470992721E0892B09F420E0822F90E0E4
S11311800A8002C0880F991F0A94E2F7982F898178
S1131190892B89838AE290E02AE230E0F9012081F8
S11311A02860FC0120838A819B8101979B838A8329
S11311B08A819B8199234CF6898127960FB6F894EE
S11311C0DEBF0FBECDBFDF91CF910895CF93DF93E4
S11311D01F92CDB7DEB789838981882351F48AE2CF
S11311E090E02AE230E0F90120812460FC012083B0
S11311F00CC08981813049F48AE290E02AE230E02F
S1131200F90120812B7FFC01208300000F90DF91E6
S1131210CF9108950E941E090C949C040E94950489
S113122058F00E948E0440F029F45F3F29F00C949A
S1131230850451110C940D040C948B040E94EA0350
S113124068F39923B1F3552391F3951B550BBB27F1
S1131250AA2762177307840738F09F5F5F4F220F36
S1131260331F441FAA1FA9F335D00E2E3AF0E0E82D
S113127032D091505040E695001CCAF72BD0FE2F77
S113128029D0660F771F881FBB1F2617370748070B
S1131290AB07B0E809F0BB0B802DBF01FF279358C3
S11312A05F4F3AF09E3F510578F00C9485040C94FE
S11312B00D045F3FE4F3983ED4F3869577956795E4
S11312C0B795F7959F5FC9F7880F911D96958795F8
S11312D097F90895E1E0660F771F881FBB1F621717
S11312E073078407BA0720F0621B730B840BBA0BD5
S11312F0EE1F88F7E0950895DB018F939F930E947A
S11313008C09BF91AF91A29F800D911DA39F900D59
S1131310B29F900D112408950E949709A59F900DE6
S1131320B49F900DA49F800D911D11240895A29F38
S1131330B001B39FC001A39F700D811D1124911DA5
S1131340B29F700D811D1124911D0895AEE0B0E08F
S1131350ECEAF9E00C94670C0D891E8986E08C8315
S11313601A8309838FEF9FE79E838D83AE01475EC7
S11313705F4F6F89788DCE0101960E94C809EF8175
S1131380F885E00FF11F10822E96E4E00C94830C94
S1131390ABE0B0E0EEECF9E00C94590C6C017B018D
S11313A08A01FC0117821682838181FFCCC1CE01A0
S11313B001963C01F6019381F70193FD859193FF1A
S11313C081917F01882309F4BAC1853239F493FDF0
S11313D0859193FF81917F01853229F4B60190E0D4
S11313E00E94BF0BE7CF912C212C312CFFE1F31588
S11313F0D8F08B3279F038F4803279F08332A1F46A
S1131400232D20611DC08D3261F0803369F4232DBA
S1131410216016C0832D8260382EE32DE4603E2EB9
S11314202AC0F32DF8601DC037FC2DC020ED280F15
S11314302A3040F08E32B9F436FC81C1232D206469
S1131440322E19C036FE06C08AE0989E200D112463
S1131450922E11C0EAE02E9E200D1124222EF32D8F
S1131460F0623F2E08C08C3621F4832D8068382E1C
S113147002C0883641F4F70193FD859193FF819171
S11314807F018111B3CF982F9F7D9554933028F419
S11314900C5F1F4F9FE399830DC0833631F0833770
S11314A071F0833509F059C021C0F8018081898326
S11314B00E5F1F4F88248394912C530113C028017D
S11314C0F2E04F0E511CF801A080B18036FE03C03B
S11314D0692D70E002C06FEF7FEFC5010E94B40B6D
S11314E04C018201F32DFF773F2E16C0280122E024
S11314F0420E511CF801A080B18036FE03C0692D54
S113150070E002C06FEF7FEFC5010E94A90B4C0190
S1131510F32DF0683F2E820133FC1BC0822D90E036
S113152088169906B0F4B60180E290E00E94BF0BE1
S11315302A94F4CFF50137FC859137FE81915F0140
S1131540B60190E00E94BF0B21102A9421E0821A78
S113155091088114910471F7E8C0843611F089363A
S113156041F5F80137FE07C0608171818281938162
S11315700C5F1F4F08C060817181072E000C880B1F
S1131580990B0E5F1F4FF32DFF763F2E97FF09C077
S113159090958095709561957F4F8F4F9F4FF06820
S11315A03F2E2AE030E0A3010E94FB0B882E861810
S11315B045C0853731F4232D2F7EB22E2AE030E04A
S11315C025C0932D997FB92E8F36C1F018F4883534
S11315D079F0B5C0803719F0883721F0B0C0E92F11
S11315E0E061BE2EB4FE0DC0FB2DF460BF2E09C019
S11315F034FE0AC0292F2660B22E06C028E030E04F
S113160005C020E130E002C020E132E0F801B7FE7D
S113161007C060817181828193810C5F1F4F06C076
S11316206081718180E090E00E5F1F4FA3010E94F2
S1131630FB0B882E8618FB2DFF773F2E36FE0DC040
S1131640232D2E7FA22E891458F434FE0BC032FCB5
S113165009C0832D8E7EA82E05C0B82CA32C03C0F0
S1131660B82C01C0B92CA4FE0FC0FE01E80DF11D79
S11316708081803321F49A2D997EA92E09C0A2FE7F
S113168006C0B394B39404C08A2D867809F0B39449
S1131690A3FC11C0A0FE06C0B21488F4280C922C3E
S11316A09B180EC0B21460F4B60180E290E00E9470
S11316B0BF0BB394F7CFB21418F42B1802C0982CB4
S11316C0212CA4FE10C0B60180E390E00E94BF0B61
S11316D0A2FE17C0A1FC03C088E790E002C088E521
S11316E090E0B6010CC08A2D867859F0A1FE02C0A4
S11316F08BE201C080E2A7FC8DE2B60190E00E947B
S1131700BF0B891438F4B60180E390E00E94BF0B4C
S11317109A94F7CF8A94F301E80DF11D8081B60104
S113172090E00E94BF0B8110F5CF222009F442CE35
S1131730B60180E290E00E94BF0B2A94F6CFF60136
S11317408681978102C08FEF9FEF2B96E2E10C9484
S1131750750CFC010590615070400110D8F780951C
S113176090958E0F9F1F0895FC0161507040019069
S11317700110D8F7809590958E0F9F1F08950F93B1
S11317801F93CF93DF93FB01238121FD03C08FEFD0
S11317909FEF2CC022FF16C04681578124813581DA
S11317A04217530744F4A081B1819D012F5F3F4F3D
S11317B0318320838C93268137812F5F3F4F37837A
S11317C0268314C08B01EC01FB010084F185E02D1C
S11317D00995892BE1F6D80116968D919C9117975E
S11317E0019617969C938E931697CE01DF91CF9115
S11317F01F910F910895FA01AA27283051F1203141
S113180081F1E8946F936E7F6E5F7F4F8F4F9F4F90
S1131810AF4FB1E03ED0B4E03CD0670F781F891FD2
S11318209A1FA11D680F791F8A1F911DA11D6A0FA0
S1131830711D811D911DA11D20D009F468943F9153
S11318402AE0269F11243019305D3193DEF6CF0152
S11318500895462F4770405D4193B3E00FD0C9F718
S1131860F6CF462F4F70405D4A3318F0495D31FD85
S11318704052419302D0A9F7EACFB4E0A6959795D8
S1131880879577956795BA95C9F7009761057105AE
S113189008959B01AC010A2E0694579547953795F8
S11318A02795BA95C9F7620F731F841F951FA01D52
S11318B008952F923F924F925F926F927F928F92F0
S11318C09F92AF92BF92CF92DF92EF92FF920F93CB
S11318D01F93CF93DF93CDB7DEB7CA1BDB0B0FB6D5
S11318E0F894DEBF0FBECDBF09942A883988488892
S11318F05F846E847D848C849B84AA84B984C88428
S1131900DF80EE80FD800C811B81AA81B981CE0F1E
S1131910D11D0FB6F894DEBF0FBECDBFED01089503
S1071920F894FFCF65
S10F19240000A04075256C640043000026
S9030000FC
