:100000000C94B1000C94CE000C94CE000C94CE0055
:100010000C94CE000C94CE000C94CE000C94CE0028
:100020000C94CE000C94CE000C94CE000C94CE0018
:100030000C94CE000C94CE000C94CE000C94CE0008
:100040000C94CE000C94CE000C94CE000C94CE00F8
:100050000C94CE000C94CE000C94CE000C94CE00E8
:100060000C94CE000C94CE0000407A10F35A00A0FD
:10007000724E18090010A5D4E80000E87648170071
:1000800000E40B54020000CA9A3B000000E1F505B1
:10009000000080969800000040420F000000A086FB
:1000A00001000000102700000000E803000000002D
:1000B0006400000000000A000000000001000000D1
:1000C00000002C76D888DC674F0823DFC1DFAE59EB
:1000D000E1B1B796E5E3E453C63AE651997696E87E
:1000E000E6C28426EB898C9B62ED407C6FFCEFBC02
:1000F0009C9F40F2BAA56FA5F490055A2AF75C932D
:100100006B6CF9676DC11BFCE0E40D47FEF520E662
:10011000B500D0ED902E0300943577050080841E45
:10012000080000204E0A000000C80C333333330FA0
:10013000986E12831141EF8D2114893BE65516CF3D
:10014000FEE6DB18D1844B381BF77C1D901DA4BB49
:10015000E424203284725E228100C9F124ECA1E5FE
:100160003D2711241FBECFEFD8E0DEBFCDBF11E089
:10017000A0E0B1E0E0EFF9E202C005900D92AC30F2
:10018000B107D9F721E0ACE0B1E001C01D92A43382
:10019000B207E1F70E94D0000C94F6140C94000012
:1001A000CF92DF92EF92FF920F931F93CF93DF9343
:1001B000CDB7DEB7C054D1090FB6F894DEBF0FBE7D
:1001C000CDBF8EEE89838EE48A8345E760E070E0E0
:1001D00080E291E40E948C048A810E9474038981E8
:1001E0000E94D1070E949E080E94CA080E94090826
:1001F0000E942B080E94DF080E944D080E945409AB
:100200000E946F080E94A10A20E1CE014196FC01E4
:10021000322F11923A95E9F70E94400B6B017C0155
:10022000CE0141968C0122E030E045E050E0C7016C
:10023000B6010E946D1220E1CE018196FC01322FA1
:1002400011923A95E9F70E94B30BDC01CB0120E053
:1002500030E543EC57E4BC01CD010E94EC01DC0128
:10026000CB016C017D01CE0181968C0123E030E051
:1002700045E050E0C701B6010E946D1220E1CE01B9
:10028000C196FC01322F11923A95E9F70E94260C93
:100290006B017C01CE01C1968C0122E030E044E08C
:1002A00050E0C701B6010E946D1260E080E00E943C
:1002B0006A04CE0141960E9476048FED0E94730479
:1002C00085E091E00E94760460E081E00E946A048B
:1002D000CE0181960E94760487E091E00E94760428
:1002E00061E183E00E946A0480E090E0A8ECB2E45F
:1002F0008B839C83AD83BE8320E030E04AE755E4E6
:100300006B817C818D819E810E940703DC01CB0182
:100310008F839887A987BA8720E030E040E85FE3C1
:100320006F81788589859A850E94E70188232CF45E
:1003300081E090E09C878B873FC020E03FEF4FE754
:1003400057E46F81788589859A850E940203181683
:100350004CF520E030E040E251E46B817C818D81FE
:100360009E810E940703DC01CB01BC01CD010E94EC
:100370005E02DC01CB019C878B870FC080E991E096
:100380009E878D878D859E850197F1F79E878D8746
:100390008B859C8501979C878B878B859C85892B7A
:1003A00069F714C06F81788589859A850E945E02FD
:1003B000DC01CB019C878B878B859C85988B8F87F5
:1003C0008F8598890197F1F7988B8F871DCF0E94B1
:1003D0008D0208F481E008950E9400020C94C80286
:1003E0000E94C10258F00E94BA0240F029F45F3F17
:1003F00029F00C94B10251110C94FC020C94B70238
:100400000E94D90268F39923B1F3552391F3951B08
:10041000550BBB27AA2762177307840738F09F5F25
:100420005F4F220F331F441FAA1FA9F335D00E2E92
:100430003AF0E0E832D091505040E695001CCAF7FF
:100440002BD0FE2F29D0660F771F881FBB1F2617C2
:1004500037074807AB07B0E809F0BB0B802DBF0199
:10046000FF2793585F4F3AF09E3F510578F00C9468
:10047000B1020C94FC025F3FE4F3983ED4F38695FE
:1004800077956795B795F7959F5FC9F7880F911D89
:100490009695879597F90895E1E0660F771F881F75
:1004A000BB1F621773078407BA0720F0621B730B28
:1004B000840BBA0BEE1F88F7E09508950E94E102C5
:1004C00088F09F5798F0B92F9927B751B0F0E1F015
:1004D000660F771F881F991F1AF0BA95C9F714C0C5
:1004E000B13091F00E94FB02B1E008950C94FB0240
:1004F000672F782F8827B85F39F0B93FCCF38695FE
:1005000077956795B395D9F73EF49095809570955A
:1005100061957F4F8F4F9F4F0895990F0008550F9A
:10052000AA0BE0E8FEEF16161706E807F907C0F079
:1005300012161306E407F50798F0621B730B840B81
:10054000950B39F40A2661F0232B242B252B21F45B
:1005500008950A2609F4A140A6958FEF811D811DFB
:10056000089597F99F6780E870E060E008959FEF35
:1005700080EC089500240A9416161706180609063A
:10058000089500240A941216130614060506089509
:10059000092E0394000C11F4882352F0BB0F40F491
:1005A000BF2B11F460FF04C06F5F7F4F8F4F9F4FD1
:1005B000089557FD9058440F551F59F05F3F71F053
:1005C0004795880F97FB991F61F09F3F79F08795BA
:1005D0000895121613061406551FF2CF4695F1DF43
:1005E00008C0161617061806991FF1CF86957105D3
:1005F000610508940895E894BB2766277727CB0107
:1006000097F908950E948D0208F48FEF08950E94D3
:100610001A030C94C8020E94BA0238F00E94C10268
:1006200020F0952311F00C94B1020C94B702112420
:100630000C94FC020E94D90270F3959FC1F3950FB0
:1006400050E0551F629FF001729FBB27F00DB11D56
:10065000639FAA27F00DB11DAA1F649F6627B00DE6
:10066000A11D661F829F2227B00DA11D621F739FCF
:10067000B00DA11D621F839FA00D611D221F749FDD
:100680003327A00D611D231F849F600D211D822F24
:10069000762F6A2F11249F5750409AF0F1F088234B
:1006A0004AF0EE0FFF1FBB1F661F771F881F915078
:1006B0005040A9F79E3F510580F00C94B1020C9474
:1006C000FC025F3FE4F3983ED4F3869577956795F7
:1006D000B795F795E7959F5FC1F7FE2B880F911DA2
:1006E0009695879597F90895CF93C82F45E760E0D1
:1006F00070E080E291E40E948C042FEF89E698E19B
:10070000215080409040E1F700C000000E944D065B
:100710008C2F0E94AD06882309F488C0C0930C0179
:100720008FE59AEE0197F1F700C0000084E30E9484
:10073000AD0680E30E94AD069FE720E082E0915085
:1007400020408040E1F700C0000084E30E94AD0635
:1007500080E30E94AD068FE891E00197F1F700C0B9
:10076000000084E30E94AD0680E30E94AD069FE78F
:1007700020E082E0915020408040E1F700C000007E
:1007800084E20E94AD0680E20E94AD0695ED9A9546
:10079000F1F7000084E20E94AD0680E20E94AD06FF
:1007A00084E80E94AD0680E80E94AD0625ED2A95FA
:1007B000F1F7000084E00E94AD0680E00E94AD06E3
:1007C00084E80E94AD0680E80E94AD0685ED8A951A
:1007D000F1F7000084E00E94AD0680E00E94AD06C3
:1007E00084E10E94AD0680E10E94AD0695ED9A95E8
:1007F000F1F7000084E00E94AD0680E00E94AD06A3
:1008000084E60E94AD0680E60E94AD0625ED2A959D
:10081000F1F700008CE00E94AD0688E00E94AD0672
:100820008CEE0E94AD0688EE0E94AD060E947D0609
:10083000CF910895CF93DF93C82F0E944D068091EA
:100840000C010E94AD0685ED8A95F1F70000DC2FC2
:10085000D07F8D2F8C600E94AD068D2F88600E9406
:10086000AD0680E1C89FE00111248C2F8C600E94AE
:10087000AD068C2F88600E94AD060E947D06DF9138
:10088000CF910895CF93DF93C82F0E944D0680919A
:100890000C010E94AD0685ED8A95F1F70000DC2F72
:1008A000D07F8D2F8D600E94AD068D2F89600E94B4
:1008B000AD0680E1C89FE00111248C2F8D600E945D
:1008C000AD068C2F89600E94AD060E947D06DF91E7
:1008D000CF910895605890E4899F600D1124862F70
:1008E0000E941A0408950E94420408950F931F93D2
:1008F000CF93FC018081882359F08F01C0E00E94D2
:100900004204CF5FF801EC0FF11D80818111F7CF18
:10091000CF911F910F910895CF93DF9300D000D016
:100920001F92CDB7DEB769837A838B839C834D8317
:1009300089819A81AB81BC818093000190930101F0
:10094000A0930201B09303018D81809304018AE298
:1009500090E02AE230E0F9012081277FFC0120832A
:100960008AE290E02AE230E0F90120812B7FFC014D
:10097000208300000F900F900F900F900F90DF9149
:10098000CF910895CF93DF93CDB7DEB7AE970FB673
:10099000F894DEBF0FBECDBF80910401882F90E098
:1009A0008D36910509F4F8C08537910509F06BC1C2
:1009B0008091000190910101A0910201B091030189
:1009C0008D839E83AF83B8872BEA3AEA4AEA50E4E4
:1009D0006D817E818F8198850E940703DC01CB01A8
:1009E00089879A87AB87BC8720E030E040E850E4F5
:1009F0006D817E818F8198850E940703DC01CB0188
:100A00008D879E87AF87B88B20E030E040E85FE3BA
:100A100069857A858B859C850E94E70188231CF473
:100A200081E0898BB2C020E03FEF4FE757E46D854E
:100A30007E858F8598890E94020318160CF07BC072
:100A400020E030E04AE754E46D817E818F81988513
:100A50000E94EC01DC01CB018A8B9B8BAC8BBD8BA4
:100A600020E030E04AE755E46A897B898C899D89DA
:100A70000E940703DC01CB018E8B9F8BA88FB98F5F
:100A800020E030E040E85FE36E897F89888D998DB2
:100A90000E94E70188232CF481E090E09B8F8A8FED
:100AA0003FC020E03FEF4FE757E46E897F89888D94
:100AB000998D0E94020318164CF520E030E040E2C8
:100AC00051E46A897B898C899D890E940703DC0136
:100AD000CB01BC01CD010E945E02DC01CB019B8FEA
:100AE0008A8F0FC080E991E09D8F8C8F8C8D9D8DBA
:100AF0000197F1F79D8F8C8F8A8D9B8D01979B8F2E
:100B00008A8F8A8D9B8D892B69F73FC06E897F897B
:100B1000888D998D0E945E02DC01CB019B8F8A8FAC
:100B20008A8D9B8D9F8F8E8F8E8D9F8D0197F1F774
:100B30009F8F8E8F2AC020E030E04FE753E4698515
:100B40007A858B859C850E9402031816ACF46D850E
:100B50007E858F8598890E945E02DC01CB0199A376
:100B600088A388A199A19BA38AA38AA19BA101978D
:100B7000F1F79BA38AA387C069857A858B859C85BD
:100B80000E945E02DC01CB01898B89898CA38CA138
:100B90008A95F1F78CA377C08091000190910101B3
:100BA000A0910201B091030189839A83AB83BC8336
:100BB00020E030E04AE755E469817A818B819C81AD
:100BC0000E940703DC01CB018DA39EA3AFA3B8A7AE
:100BD00020E030E040E85FE36DA17EA18FA198A501
:100BE0000E94E70188232CF481E090E09AA789A76E
:100BF0003FC020E03FEF4FE757E46DA17EA18FA1FA
:100C000098A50E94020318164CF520E030E040E25F
:100C100051E469817A818B819C810E940703DC0108
:100C2000CB01BC01CD010E945E02DC01CB019AA781
:100C300089A70FC080E991E09CA78BA78BA59CA5F5
:100C40000197F1F79CA78BA789A59AA501979AA769
:100C500089A789A59AA5892B69F714C06DA17EA1E2
:100C60008FA198A50E945E02DC01CB019AA789A7FB
:100C700089A59AA59EA78DA78DA59EA50197F1F799
:100C80009EA78DA700000000AE960FB6F894DEBFB9
:100C90000FBECDBFDF91CF910895CF93DF93CDB736
:100CA000DEB78AE290E02AE230E0F9012081277F76
:100CB000FC0120838AE290E02AE230E0F901208101
:100CC0002B7FFC0120830E94C2048AE290E02AE28A
:100CD00030E0F90120812460FC0120830E94C204DD
:100CE0008AE290E02AE230E0F90120812860FC01EC
:100CF00020830000DF91CF910895CF93DF93CDB78C
:100D0000DEB78AE290E02AE230E0F9012081286033
:100D1000FC0120838AE290E02AE230E0F9012081A0
:100D20002460FC0120830E94C2048AE290E02AE24F
:100D300030E0F9012081277FFC0120830E94C2045A
:100D40008AE290E02AE230E0F90120812B7FFC0169
:100D500020830000DF91CF910895CF93DF9300D0DF
:100D600000D0CDB7DEB78C838AE290E02AE230E093
:100D7000F90120812860FC0120831A8219822FC08A
:100D80000E94C2048C81881F8827881F0E94AD079B
:100D90008C81880F8C830E94C2048AE290E02AE250
:100DA00030E0F9012081277FFC0120830E94C204EA
:100DB0008AE290E02AE230E0F90120812860FC011B
:100DC00020838AE290E02AE230E0F9012081246069
:100DD000FC01208389819A8101969A838983898184
:100DE0009A8108976CF28AE290E02AE230E0F901F9
:100DF00020812B7FFC0120830E94C2048AE290E0C4
:100E00002AE230E0F9012081277FFC0120830E9443
:100E1000C2041B8289E290E0FC018081882F90E06F
:100E200084709927892B11F481E08B838AE290E00A
:100E30002AE230E0F90120812860FC0120830E9431
:100E4000C2048B810F900F900F900F90DF91CF9184
:100E50000895CF93DF93CDB7DEB727970FB6F894F9
:100E6000DEBF0FBECDBF8E836F8319828E818E7FD2
:100E70008C838E8181608D838AE290E02AE230E06B
:100E8000F90120812860FC0120830E944D068C819D
:100E90000E94AD068F810E94AD060E944D068D8195
:100EA0000E94AD06882309F44EC08AE290E02AE24F
:100EB00030E0F90120812860FC0120838AE290E083
:100EC0002AE230E0F90120812B7FFC01208387E0BA
:100ED00090E09B838A8333C00E94C2048AE290E040
:100EE0002AE230E0F9012081277FFC0120830E9463
:100EF000C20489E290E0FC018081882F90E0847038
:100F0000992721E0892B09F420E0822F90E00A80C4
:100F100002C0880F991F0A94E2F7982F8981892BC4
:100F200089838AE290E02AE230E0F901208128609A
:100F3000FC0120838A819B8101979B838A838A811C
:100F40009B8199234CF6898127960FB6F894DEBFD2
:100F50000FBECDBFDF91CF910895CF93DF931F9246
:100F6000CDB7DEB789838981882351F48AE290E086
:100F70002AE230E0F90120812460FC0120830CC0CA
:100F80008981813049F48AE290E02AE230E0F90177
:100F900020812B7FFC01208300000F90DF91CF91F7
:100FA0000895CF93DF931F92CDB7DEB789838981F0
:100FB000816080930D0189818E7F80930E010000F6
:100FC0000F90DF91CF910895CF93DF9300D000D0A1
:100FD000CDB7DEB78C830E94D408898385EF0E9449
:100FE000AD118A830E94C0088A81982F9F718C81DD
:100FF000892B682F85EF0E9487118B8389810E943E
:10100000A8088B810F900F900F900F90DF91CF91D8
:101010000895CF93DF93CDB7DEB780E20E94E40757
:10102000DF91CF910895CF93DF9300D0CDB7DEB796
:101030008A8384EF0E94AD1189838981982F9F71E3
:101040008A81892B682F84EF0E9487110F900F905F
:10105000DF91CF910895CF93DF93CDB7DEB780E2D4
:101060000E941308DF91CF910895CF93DF9300D0B2
:10107000CDB7DEB78A8384EF0E94AD118983898161
:10108000982F937E8A81892B682F84EF0E94871185
:101090000F900F90DF91CF910895CF93DF93CDB74D
:1010A000DEB784E00E943508DF91CF910895CF9399
:1010B000DF9300D0CDB7DEB78A8382EF0E94AD11F7
:1010C00089838981982F987F8A81892B682F82EF65
:1010D0000E9487110F900F90DF91CF910895CF93C9
:1010E000DF93CDB7DEB781E00E945708DF91CF9143
:1010F0000895CF93DF9300D000D0CDB7DEB78C83B7
:101100000E94D408898385EF0E94AD118A830E94D2
:10111000C0088A81982F937E8C81892B682F85EF58
:101120000E9487118B8389810E94A8088B810F9070
:101130000F900F900F90DF91CF910895CF93DF9391
:10114000CDB7DEB784E00E947908DF91CF91089592
:10115000CF93DF9300D0CDB7DEB78A8384EF0E94B0
:10116000AD1189838981982F9C7F8A81892B682F73
:1011700084EF0E9487110F900F90DF91CF91089517
:10118000CF93DF93CDB7DEB780E00E94A808DF9150
:10119000CF910895CF93DF93CDB7DEB783E00E9460
:1011A000A808DF91CF910895CF93DF93CDB7DEB735
:1011B00084EF0E94AD118370DF91CF910895CF939A
:1011C000DF93CDB7DEB71092120110921101109289
:1011D00016011092150110922B0110922A0188E835
:1011E0000E94AD11282F30E08091110190911201E1
:1011F000822B932B909312018093110189E80E9416
:10120000AD11882F90E0982F88279C0180911101C3
:1012100090911201822B932B9093120180931101D4
:101220008AE80E94AD11282F30E08091150190913D
:101230001601822B932B90931601809315018BE856
:101240000E94AD11882F90E0382F22278091150140
:1012500090911601822B932B909316018093150188
:101260008CE80E94AD11282F30E080912A019091E6
:101270002B01822B932B90932B0180932A018DE8D5
:101280000E94AD11882F90E0382F222780912A01EB
:1012900090912B01822B932B90932B0180932A0109
:1012A0000000DF91CF910895CF93DF93CDB7DEB7E4
:1012B0001092200110921F01109219011092180132
:1012C000109222011092210110921B0110921A011A
:1012D00010921E0110921D0110922D0110922C01EE
:1012E0001092100110920F0110922401109223010C
:1012F00010922901109228018EE80E94AD11282F2A
:1013000030E080911F0190912001822B932B9093CC
:10131000200180931F018FE80E94AD11882F90E07B
:10132000982F88279C0180911F0190912001822B8A
:10133000932B9093200180931F0180E90E94AD11AF
:10134000282F30E08091180190911901822B932B66
:10135000909319018093180181E90E94AD11882FA3
:1013600090E0382F22278091180190911901822B4B
:10137000932B909319018093180182E90E94AD117B
:10138000282F30E08091210190912201822B932B14
:10139000909322018093210183E90E94AD11882F4F
:1013A00090E0382F22278091210190912201822BF9
:1013B000932B909322018093210184E90E94AD1127
:1013C000282F30E080911A0190911B01822B932BE2
:1013D00090931B0180931A0185E90E94AD11882F1B
:1013E00090E0382F222780911A0190911B01822BC7
:1013F000932B90931B0180931A0186E90E94AD11F3
:10140000282F30E080911D0190911E01822B932B9B
:1014100090931E0180931D0187E90E94AD11882FD2
:1014200090E0382F222780911D0190911E01822B80
:10143000932B90931E0180931D0188E90E94AD11AA
:10144000282F30E080912C0190912D01822B932B3D
:1014500090932D0180932C0189E90E94AD11882F72
:1014600090E0382F222780912C0190912D01822B22
:10147000932B90932D0180932C018AE90E94AD114A
:10148000282F30E080910F0190911001822B932B37
:101490009093100180930F018BE90E94AD11882F6A
:1014A00090E0382F222780910F0190911001822B1C
:1014B000932B9093100180930F018CE90E94AD1142
:1014C000282F30E08091230190912401822B932BCF
:1014D00090932401809323018DE90E94AD11882F00
:1014E00090E0382F22278091230190912401822BB4
:1014F000932B90932401809323018EE90E94AD11D8
:10150000282F30E08091280190912901822B932B84
:1015100090932901809328018FE90E94AD11882FB3
:1015200090E0382F22278091280190912901822B69
:10153000932B90932901809328010000DF91CF9194
:101540000895CF93DF93CDB7DEB7109217011092B5
:101550002F0110922E011092270110921401109267
:101560001301109226011092250110921C0181EAAC
:101570000E94AD11982F80911701892B809317013C
:1015800081EE0E94AD11282F30E080912E019091C4
:101590002F01822B932B90932F0180932E0182EEAB
:1015A0000E94AD11882F90E0382F222780912E01C4
:1015B00090912F01822B932B90932F0180932E01DA
:1015C00083EE0E94AD11982F80912701892B809383
:1015D000270184EE0E94AD11882F90E09C01229596
:1015E0003295307F3227207F3227809113019091EE
:1015F0001401822B932B909314018093130185EE99
:101600000E94AD11882F90E09C012F7033278091AC
:10161000130190911401822B932B909314018093CA
:10162000130185EE0E94AD1182958F70282F30E056
:101630008091250190912601822B932B9093260176
:101640008093250186EE0E94AD11882F90E0382FFF
:1016500022278091250190912601822B932B909334
:1016600026018093250187EE0E94AD11982F80916D
:101670001C01892B80931C010000DF91CF910895FC
:10168000CF93DF9300D000D0CDB7DEB719821A8296
:101690001B821C828AEF0E94AD11882F90E0A0E08F
:1016A000B0E0072E7CE0880F991FAA1FBB1F7A9518
:1016B000D1F7702D29813A814B815C81822B932B4C
:1016C000A42BB52B89839A83AB83BC838BEF0E94B9
:1016D000AD11882F90E0A0E0B0E0880F991FAA1FFD
:1016E000BB1F880F991FAA1FBB1F880F991FAA1F16
:1016F000BB1F880F991FAA1FBB1F9C01AD018981C9
:101700009A81AB81BC81822B932BA42BB52B89832F
:101710009A83AB83BC838CEF0E94AD1182958F704E
:10172000882F90E0A0E0B0E029813A814B815C8174
:10173000822B932BA42BB52B89839A83AB83BC83F9
:1017400089819A81AB81BC81BC01CD010E946D0C65
:10175000DC01CB01BC01CD010F900F900F900F90D9
:10176000DF91CF910895CF93DF9300D000D0CDB714
:10177000DEB719821A821B821C8287EF0E94AD118C
:10178000882F90E0A0E0B0E0072E7CE0880F991F42
:10179000AA1FBB1F7A95D1F7702D29813A814B8101
:1017A0005C81822B932BA42BB52B89839A83AB83EB
:1017B000BC8388EF0E94AD11882F90E0A0E0B0E0DC
:1017C000880F991FAA1FBB1F880F991FAA1FBB1F35
:1017D000880F991FAA1FBB1F880F991FAA1FBB1F25
:1017E0009C01AD0189819A81AB81BC81822B932BB5
:1017F000A42BB52B89839A83AB83BC8389EF0E948A
:10180000AD1182958F70882F90E0A0E0B0E0298123
:101810003A814B815C81822B932BA42BB52B89833E
:101820009A83AB83BC8389819A81AB81BC81BC01E3
:10183000CD010E94A90DDC01CB01BC01CD010F90AF
:101840000F900F900F90DF91CF910895CF93DF937A
:1018500000D000D0CDB7DEB719821A821B821C825D
:101860008DEF0E94AD11882F90E0A0E0B0E0BA2F7C
:10187000A92F982F882729813A814B815C81822B5F
:10188000932BA42BB52B89839A83AB83BC838EEFD8
:101890000E94AD11882F90E0A0E0B0E029813A814C
:1018A0004B815C81822B932BA42BB52B89839A834C
:1018B000AB83BC8389819A81AB81BC81BC01CD01A2
:1018C0000E94F80FDC01CB01BC01CD010F900F90FD
:1018D0000F900F90DF91CF9108958F929F92AF92CA
:1018E000BF92CF92DF92EF92FF92CF93DF93CDB76B
:1018F000DEB760970FB6F894DEBF0FBECDBF6D8721
:101900007E878F87988B6D857E858F8598890E94CD
:101910003212DC01CB0120E030E040E856E4BC01AB
:10192000CD010E94EC01DC01CB016C017D018091B5
:10193000110190911201CC01A0E0B0E0BC01CD01F9
:101940000E943012DC01CB0120E030E040E854E49A
:10195000BC01CD010E94EC01DC01CB019C01AD0179
:10196000C701B6010E94BC11DC01CB016C017D01F5
:101970008091150190911601092E000CAA0BBB0B4A
:10198000BC01CD010E943212DC01CB019C01AD01F2
:10199000C701B6010E940703DC01CB0189839A834A
:1019A000AB83BC836D857E858F8598890E943212BA
:1019B000DC01CB0120E030E040E058E4BC01CD0187
:1019C0000E94EC01DC01CB016C017D0180911101D1
:1019D00090911201CC01A0E0B0E0BC01CD010E94C9
:1019E0003012DC01CB0120E030E040E056E4BC01E5
:1019F000CD010E94EC01DC01CB019C01AD01C701CE
:101A0000B6010E94BC11DC01CB016C017D016D852A
:101A10007E858F8598890E943212DC01CB0120E0FF
:101A200030E040E058E4BC01CD010E94EC01DC0153
:101A3000CB014C015D018091110190911201CC010B
:101A4000A0E0B0E0BC01CD010E943012DC01CB016E
:101A500020E030E040E056E4BC01CD010E94EC0102
:101A6000DC01CB019C01AD01C501B4010E94BC1198
:101A7000DC01CB019C01AD01C701B6010E94070347
:101A8000DC01CB016C017D0180912A0190912B0139
:101A9000092E000CAA0BBB0BBC01CD010E94321217
:101AA000DC01CB019C01AD01C701B6010E94070317
:101AB000DC01CB018D839E83AF83B8872D813E816E
:101AC0004F81588569817A818B819C810E94BD11EB
:101AD000DC01CB01BC01CD010E942912DC01CB014C
:101AE0008093300190933101A0933201B093330180
:101AF0002D813E814F81588569817A818B819C81BE
:101B00000E94BD11DC01CB0120E030E040EA55E449
:101B1000BC01CD010E94EC01DC01CB0189879A87D1
:101B2000AB87BC8789859A85AB85BC85BC01CD0117
:101B300060960FB6F894DEBF0FBECDBFDF91CF9198
:101B4000FF90EF90DF90CF90BF90AF909F908F90DD
:101B50000895CF92DF92EF92FF92CF93DF93CDB7AC
:101B6000DEB760970FB6F894DEBF0FBECDBF6D87AE
:101B70007E878F87988B8091300190913101A09161
:101B80003201B0913301BC01CD010E943212DC015F
:101B9000CB0120E030E040E050E4BC01CD010E94E8
:101BA000EC01DC01CB0120E030E04AE757E4BC0166
:101BB000CD010E94BC11DC01CB0189839A83AB83E8
:101BC000BC8329813A814B815C8169817A818B81D7
:101BD0009C810E940703DC01CB016C017D01809197
:101BE0002C0190912D01092E000CAA0BBB0BBC01FE
:101BF000CD010E943212DC01CB019C01AD01C70175
:101C0000B6010E940703DC01CB0120E030E040E098
:101C100057E4BC01CD010E94EC01DC01CB018D83B6
:101C20009E83AF83B88780911D0190911E01092E7C
:101C3000000CAA0BBB0BBC01CD010E943212DC01CF
:101C4000CB0129813A814B815C81BC01CD010E948D
:101C50000703DC01CB019C01AD01BC01CD010E9459
:101C6000BD11DC01CB019C01AD016D817E818F81B5
:101C700098850E94BD11DC01CB018D839E83AF83CB
:101C8000B88720E030E040E850E46D817E818F81AC
:101C900098850E94EC01DC01CB016C017D018091F3
:101CA0001A0190911B01092E000CAA0BBB0BBC0161
:101CB000CD010E943212DC01CB0120E030E040E88F
:101CC00057E4BC01CD010E940703DC01CB019C015C
:101CD000AD01C701B6010E94BD11DC01CB018D83AE
:101CE0009E83AF83B8878091210190912201092EB4
:101CF000000CAA0BBB0BBC01CD010E943212DC010F
:101D0000CB0129813A814B815C81BC01CD010E94CC
:101D10000703DC01CB0129813A814B815C81BC0145
:101D2000CD010E940703DC01CB0120E030E040E060
:101D300059E4BC01CD010E94EC01DC01CB016C0136
:101D40007D018091180190911901092E000CAA0BB8
:101D5000BB0BBC01CD010E943212DC01CB012981F9
:101D60003A814B815C81BC01CD010E940703DC01FB
:101D7000CB019C01AD01C701B6010E94BD11DC0180
:101D8000CB0120E030E040E059E4BC01CD010E94ED
:101D9000EC01DC01CB0189839A83AB83BC8320E017
:101DA00030E040E057E469817A818B819C810E9418
:101DB000EC01DC01CB0120E030E040E85FE3BC0156
:101DC000CD010E94BD11DC01CB016C017D01809130
:101DD0001F0190912001CC01A0E0B0E0BC01CD0139
:101DE0000E943012DC01CB019C01AD01C701B6019C
:101DF0000E940703DC01CB0189839A83AB83BC83F8
:101E000020E030E0A90169817A818B819C810E9468
:101E1000E701882321F480E090E0DC01DAC06D85E1
:101E20007E858F8598890E943212DC01CB019C014E
:101E3000AD0160E070E080E899E40E94BC11DC0133
:101E4000CB0189879A87AB87BC8720E030E040E8E8
:101E500055E46D817E818F8198850E94EC01DC01C3
:101E6000CB019C01AD0169857A858B859C850E949B
:101E7000BC11DC01CB0120E030E543EC55E4BC01B2
:101E8000CD010E940703DC01CB0129813A814B81FE
:101E90005C81BC01CD010E94EC01DC01CB01898792
:101EA0009A87AB87BC878091280190912901092EE0
:101EB000000CAA0BBB0BBC01CD010E943212DC014D
:101EC000CB0129853A854B855C85BC01CD010E94FB
:101ED0000703DC01CB0129853A854B855C85BC0174
:101EE000CD010E940703DC01CB0120E030E040E09F
:101EF0005FE4BC01CD010E94EC01DC01CB018983D0
:101F00009A83AB83BC838091230190912401092E95
:101F1000000CAA0BBB0BBC01CD010E943212DC01EC
:101F2000CB0129853A854B855C85BC01CD010E949A
:101F30000703DC01CB0120E030E040E057E4BC01C6
:101F4000CD010E94EC01DC01CB018D839E83AF8328
:101F5000B8872D813E814F81588569817A818B8137
:101F60009C810E94BD11DC01CB016C017D0180913F
:101F70000F0190911001092E000CAA0BBB0BBC01A4
:101F8000CD010E943212DC01CB019C01AD01C701E1
:101F9000B6010E94BD11DC01CB0120E030E040E839
:101FA00051E4BC01CD010E94EC01DC01CB019C019C
:101FB000AD0169857A858B859C850E94BD11DC0108
:101FC000CB0189879A87AB87BC8789859A85AB8542
:101FD000BC85BC01CD0160960FB6F894DEBF0FBE84
:101FE000CDBFDF91CF91FF90EF90DF90CF9008951C
:101FF0004F925F926F927F928F929F92AF92BF9219
:10200000CF92DF92EF92FF92CF93DF93CDB7DEB7FF
:1020100028970FB6F894DEBF0FBECDBF6D837E83C9
:102020008F8398878091300190913101A091320186
:10203000B0913301BC01CD010E943212DC01CB0111
:1020400020E030E046E957E4BC01CD010E94BC111C
:10205000DC01CB0189839A83AB83BC836D817E8154
:102060008F8198850E9432126B017C01809113014F
:1020700090911401092E000CAA0BBB0BBC01CD01E1
:102080000E943212DC01CB0120E030E040E852E453
:10209000BC01CD010E940703DC01CB014C015D01B5
:1020A0008091250190912601092E000CAA0BBB0BF3
:1020B000BC01CD010E943212DC01CB0120E030E0F6
:1020C00040E856E4BC01CD010E94EC01DC01CB01EB
:1020D00029813A814B815C81BC01CD010E940703BB
:1020E000DC01CB019C01AD01C501B4010E94BD1111
:1020F000DC01CB019C01AD01C701B6010E94BC11FE
:10210000DC01CB016C017D0180912E0190912F01AA
:10211000092E000CAA0BBB0BBC01CD010E94321290
:10212000DC01CB0120E030E040E857E4BC01CD0108
:102130000E94EC01DC01CB014C015D0180911C018E
:10214000882F90E0A0E0B0E0BC01CD010E943012E9
:10215000DC01CB0120E030E040E85CE4BC01CD01D3
:102160000E94EC01DC01CB0129813A814B815C8129
:10217000BC01CD010E940703DC01CB012C013D0114
:1021800080912701882F90E0A0E0B0E0BC01CD0154
:102190000E943012DC01CB0120E030E040E85CE43A
:1021A000BC01CD010E94EC01DC01CB0129813A8107
:1021B0004B815C81BC01CD010E940703DC01CB0196
:1021C00020E030E040E85FE3BC01CD010E94BD119A
:1021D000DC01CB019C01AD01C301B2010E940703E8
:1021E000DC01CB0120E030E040E85FE3BC01CD0141
:1021F0000E94BD11DC01CB019C01AD01C501B40100
:102200000E940703DC01CB019C01AD01C701B601AF
:102210000E940703DC01CB0189839A83AB83BC83D3
:1022200080911701882F90E0A0E0B0E0BC01CD01C3
:102230000E943012DC01CB0129813A814B815C8103
:10224000BC01CD010E940703DC01CB0120E030E09E
:1022500040E059E4BC01CD010E94EC01DC01CB015E
:102260009C01AD0160E070E080E89FE30E94BC113A
:10227000DC01CB019C01AD0169817A818B819C815C
:102280000E940703DC01CB0189839A83AB83BC8363
:1022900020E030E048EC52E469817A818B819C81B6
:1022A0000E94020318164CF480E090E0A8ECB2E41F
:1022B00089839A83AB83BC830FC020E030E0A901FF
:1022C00069817A818B819C810E94E701882324F4B3
:1022D00019821A821B821C8289819A81AB81BC81FE
:1022E000BC01CD0128960FB6F894DEBF0FBECDBF5E
:1022F000DF91CF91FF90EF90DF90CF90BF90AF90A4
:102300009F908F907F906F905F904F900895CF93A4
:10231000DF9300D01F92CDB7DEB78A836B8319821B
:102320000E944D0680910E010E94AD06882361F047
:102330008A810E94AD06882339F08B810E94AD0608
:10234000882311F081E089830E947D0689810F90A6
:102350000F900F90DF91CF910895CF93DF931F924D
:10236000CDB7DEB7898380910D0169810E9429076D
:102370000F90DF91CF9108955058BB27AA270E9454
:10238000D4110C94C8020E94BA0238F00E94C10213
:1023900020F039F49F3F19F426F40C94B7020EF4A0
:1023A000E095E7FB0C94B102E92F0E94D90258F3A3
:1023B000BA17620773078407950720F079F4A6F52A
:1023C0000C94FB020EF4E0950B2EBA2FA02D0B01FE
:1023D000B90190010C01CA01A0011124FF27591B6A
:1023E00099F0593F50F4503E68F11A16F040A22F70
:1023F000232F342F4427585FF3CF469537952795E1
:10240000A795F0405395C9F77EF41F16BA0B620BDF
:10241000730B840BBAF09150A1F0FF0FBB1F661F26
:10242000771F881FC2F70EC0BA0F621F731F841F69
:1024300048F4879577956795B795F7959E3F08F08F
:10244000B0CF9395880F08F09927EE0F9795879551
:1024500008950E945E026894B1110C94FC020895E4
:10246000E89409C097FB3EF490958095709561952E
:102470007F4F8F4F9F4F9923A9F0F92F96E9BB27E4
:102480009395F695879577956795B795F111F8CF60
:10249000FAF4BB0F11F460FF1BC06F5F7F4F8F4FCB
:1024A0009F4F16C0882311F096E911C0772321F0C1
:1024B0009EE8872F762F05C0662371F096E8862F59
:1024C00070E060E02AF09A95660F771F881FDAF7B0
:1024D000880F9695879597F90895EF920F931F931C
:1024E000CF93DF93E80147FD02C034E001C034E13F
:1024F000042E000C550B57FF03C05195419551090F
:10250000E32E022F242FAE010E948D12CE01DF9107
:10251000CF911F910F91EF900895A9E0B0E0E3E90A
:10252000F2E10C94C5146A01122FB02E2BE3201790
:1025300020F0FF24F394F00E02C02CE3F22E0F2DB6
:1025400027E0AE014F5F5F4F0E94E713BC01498156
:10255000842F8970813031F0E1FC06C0E0FE06C0B6
:1025600090E205C09DE203C09BE201C090E05E2DB9
:10257000507143FF3CC0911102C083E001C084E070
:10258000811718F4212F281B01C020E051110BC026
:10259000F601822F30E2882319F031938150FBCF6E
:1025A000C20ED11C20E0992329F0D6019C93F6019C
:1025B00031966F01C6010396E2FE0AC03EE4D601E1
:1025C0003C9341E411964C93119712963C9306C0AC
:1025D0003EE6F601308341E641833283FC01322F2F
:1025E00040E2332309F442C041933150FACF42FF15
:1025F00044C0911102C083E001C084E0811718F447
:10260000212F281B01C020E051110BC0F601822FA1
:1026100030E2882319F031938150FBCFC20ED11CD8
:1026200020E0992329F0D6019C93F60131966F01A1
:10263000C6010396E2FE0BC039E4D6013C933EE4AA
:1026400011963C93119736E412963C9307C039E6F5
:10265000F60130833EE6318336E63283FC01322FC9
:1026600040E2332319F041933150FBCFFC01E20FDC
:10267000F11D10828EEF9FEFA6C021E030E0911196
:1026800002C020E030E0161617061CF4FB0131965C
:1026900002C0E1E0F0E02E0F3F1FBB2021F0EB2D48
:1026A000F0E0319602C0E0E0F0E02E0F3F1FE12F96
:1026B000F0E02E173F071CF4121B212F01C020E071
:1026C0008E2D887159F4F601822F30E2882319F09B
:1026D00031938150FBCFC20ED11C20E0992329F009
:1026E000D6019C93F60131966F0151110BC0F60192
:1026F000822F90E3882319F091938150FBCFC20E73
:10270000D11C20E00F2D060F9A81342F307144FF29
:1027100003C0913309F40150101624F4093018F065
:1027200008E001C001E0AB0177FF02C040E050E0EB
:10273000FB01E41BF50BA1E0B0E0AC0FBD1FEA0FFD
:10274000FB1F8EE2A82E4B01801A91080B2D10E082
:102750001195019511094F3FBFEF5B0721F4D60199
:10276000AC9211966D01641775072CF084169506CE
:1027700014F4818101C080E3415051093196D601A2
:1027800011967D014017510724F0D6018C93670103
:10279000E2CF6417750739F4963320F4953319F4B2
:1027A000311101C081E3F6018083F701822F90E2AD
:1027B000882319F091938150FBCFF701E20FF11DAF
:1027C000108280E090E02996ECE00C94E11428302F
:1027D00008F027E03327DA01990F311D87FD91605A
:1027E00000966105710539F432602E5F3D9330E348
:1027F0002A95E1F708959F3F30F080387105610513
:1028000009F03C5F3C5F3D93913008F08068911D7A
:10281000DF93CF931F930F93FF92EF92192F987F1F
:102820009695E92F96959695E90FFF27EE53FF4F62
:1028300099273327EE24FF24A701E7010590089488
:10284000079428F4360FE71EF81E491F511D660F26
:10285000771F881F991F0694A1F70590079428F405
:10286000E70EF81E491F561FC11D770F881F991FBD
:10287000661F0694A1F70590079428F4F80E491FE7
:10288000561FC71FD11D880F991F661F771F0694FB
:10289000A1F70590079420F4490F561FC71FD81FB2
:1028A000990F661F771F881F0694A9F784911095CA
:1028B000177041F0D695C79557954795F794E794CB
:1028C0001A95C1F7E8E6F0E06894159015913591F6
:1028D0006591959105907FE27395E118F10A430B9C
:1028E000560BC90BD009C0F7E10CF11E431F561F50
:1028F000C91FD01D7EF4703311F48A95E6CFE89499
:10290000015030F0080F0AF40027021708F4202FB6
:102910002395022F7A3328F079E37D932A95E9F7FE
:1029200010C07D932A9589F60694979567953795FB
:1029300017951794E118F10A430B560BC90BD009F0
:1029400098F023957E9173957A3308F070E37C9329
:102950002013B8F77E9170617D9330F0839571E319
:102960007D9370E32A95E1F71124EF90FF900F918A
:102970001F91CF91DF91992787FD909508952F9210
:102980003F924F925F926F927F928F929F92AF92FF
:10299000BF92CF92DF92EF92FF920F931F93CF934C
:1029A000DF93CDB7DEB7CA1BDB0B0FB6F894DEBFE3
:1029B0000FBECDBF09942A88398848885F846E8409
:1029C0007D848C849B84AA84B984C884DF80EE8053
:1029D000FD800C811B81AA81B981CE0FD11D0FB65C
:1029E000F894DEBF0FBECDBFED010895F894FFCF80
:0C29F0000000A0407543002062617200EE
:00000001FF
